:100000000C9489000C94B1000C94B1000C94B100D4
:100010000C94B1000C94B1000C94B1000C94B1009C
:100020000C94B1000C94B1000C94B1000C94B1008C
:100030000C94B1000C94B1000C94B1000C94B1007C
:100040000C944D040C94B1000C94BD040C949704D2
:100050000C94B1000C94B1000C94B1000C94B1005C
:100060000C94B1000C94B1005A73757445746865B2
:10007000726E65745544503A3A626567696E5061B4
:10008000636B657428636F6E73742063686172209C
:100090002A686F73742C2075696E7431365F742012
:1000A000706F7274293B206973206E6F74207375B2
:1000B00070706F727465642120536F7272792100C1
:1000C00000000000240027002A0000000000250096
:1000D00028002B00040404040404040402020202A5
:1000E00002020303030303030102040810204080FB
:1000F000010204081020010204081020000000087A
:1001000000020100000304070000000000000000DE
:10011000EF0411241FBECFEFD8E0DEBFCDBF11E04A
:10012000A0E0B1E0E2E0FDE002C005900D92AA3946
:10013000B107D9F722E0AAE9B1E001C01D92AD3EB6
:10014000B207E1F710E0C9E8D0E004C02197FE0152
:100150000E947906C838D107C9F70E9452050C944D
:100160007F060C94000090E0FC01E450FF4F2491C6
:10017000FC01E851FF4F3491FC01EC52FF4FE49138
:10018000EE23C9F0222339F0233001F1A8F4213005
:1001900019F1223029F1F0E0EE0FFF1FE653FF4F77
:1001A000A591B4918FB7F894EC91611126C0309568
:1001B0003E233C938FBF08952730A9F02830C9F023
:1001C000243049F7809180008F7D03C080918000AA
:1001D0008F7780938000DFCF84B58F7784BDDBCFAE
:1001E00084B58F7DFBCF8091B0008F778093B00076
:1001F000D2CF8091B0008F7DF9CF3E2BDACF682F20
:1002000082E00C94B300CF93DF9390E0FC01E851BF
:10021000FF4F24918C529F4FFC0184918823C9F099
:1002200090E0880F991FFC01E054FF4FA591B49115
:10023000FC01E653FF4FC591D49161110DC09FB7EA
:10024000F8948C91209582238C938881282328838D
:100250009FBFDF91CF910895623051F49FB7F8941A
:100260003C91822F809583238C93E8812E2BEFCFB6
:100270008FB7F894EC912E2B2C938FBFEACFAF92CF
:10028000BF92CF92DF92EF92FF920F931F93CF9383
:10029000DF936C017B018B01040F151FEB015E01E5
:1002A000AE18BF08C017D10759F06991D601ED917A
:1002B000FC910190F081E02DC6010995892B79F719
:1002C000C501DF91CF911F910F91FF90EF90DF90CB
:1002D000CF90BF90AF900895FC01538D448D252F92
:1002E00030E0842F90E0821B930B541710F0CF96D0
:1002F000089501970895FC01918D828D981761F002
:10030000A28DAE0FBF2FB11D5D968C91928D9F5F18
:100310009F73928F90E008958FEF9FEF0895FC01F7
:10032000918D828D981731F0828DE80FF11D858DAA
:1003300090E008958FEF9FEF0895FC01918D228D3D
:10034000892F90E0805C9F4F821B91098F739927C2
:1003500008958BE192E00E949D0121E0892B09F430
:1003600020E0822F089580E090E0892B29F00E9400
:10037000A90181110C9400000895FC01A48DA80F1F
:10038000B92FB11DA35ABF4F2C91848D90E00196D7
:100390008F739927848FA689B7892C93A089B189F7
:1003A0008C91837080648C93938D848D981306C098
:1003B0000288F389E02D80818F7D80830895EF92FC
:1003C000FF920F931F93CF93DF93EC0181E0888F0F
:1003D0009B8D8C8D98131AC0E889F989808185FFDF
:1003E00015C09FB7F894EE89FF896083E889F98981
:1003F00080818370806480839FBF81E090E0DF9183
:10040000CF911F910F91FF90EF900895F62E0B8DD5
:1004100010E00F5F1F4F0F731127E02E8C8D8E1190
:100420000CC00FB607FCFACFE889F989808185FFF7
:10043000F5CFCE010E94BD01F1CFEB8DEC0FFD2F6A
:10044000F11DE35AFF4FF0829FB7F8940B8FEA89B2
:10045000FB8980818062CFCFCF93DF93EC01888DC1
:100460008823B9F0AA89BB89E889F9898C9185FD2F
:1004700003C0808186FD0DC00FB607FCF7CF8C91BD
:1004800085FFF2CF808185FFEDCFCE010E94BD01B7
:10049000E9CFDF91CF91089581E0089587E08CBF87
:1004A00095EE9BBF1ABE8CBF86EE8BBF1ABE089519
:1004B00090E080E0089597E09CBF87EE8BBF2AB75D
:1004C0009CBF88EE8BBF8AB7322F282F9CBF85EE4A
:1004D0008BBF8AB79CBF96EE9BBF9AB78927982798
:1004E0008927821B930B4817590708F4CA01A901F1
:1004F0004751584FFB01DB01A80FB91FEA17FB0753
:1005000039F05CBF4BBF6AB761934F5F5F4FF6CF67
:10051000280F391F47E04CBF57EE5BBF3ABF4CBFB7
:1005200038EE3BBF2ABF0895CF93DF931F92CDB71C
:10053000DEB7DC01ED91FC91028CF38DE02D41E002
:1005400050E0BE016F5F7F4F09951816190634F40D
:10055000898190E00F90DF91CF9108958FEF9FEF09
:10056000F9CFFC0197E09CBF85EE8BBF8AB79CBF9B
:1005700026EE2BBF6AB79CBF27EE2BBF2AB79CBFC6
:1005800098EE9BBF3AB71CBE90E19BBF9AB71CBECA
:100590004FE04BBF4AB71CBE5EE05BBF5AB71CBE04
:1005A0007DE07BBF7AB7708B518B428B938B1CBEE7
:1005B00091E19BBF4AB71CBE92E19BBF9AB7542FF3
:1005C000492F558B448B982F862F2327322723279B
:1005D000821B930B08951CBE83E18BBF8AB71CBEA0
:1005E00094E19BBF9AB7892798278927FB019C0133
:1005F0002B5E3F4FDB01A40FB51FEA17FB0739F055
:1006000061913CBF2BBF6ABF2F5F3F4FF6CF480FB2
:10061000591F1CBE83E18BBF5ABF1CBE84E18BBF38
:100620004ABF90E080E00895CF93DF931F92CDB74B
:10063000DEB76983DC01ED91FC910280F381E02D4E
:1006400041E050E0BE016F5F7F4F09950F90DF9151
:10065000CF9108951CBE1BBE8FEF8ABF1CBE1BBE70
:1006600082E08ABF90E080E00895FB01328123811F
:10067000948185811CBE1BBE61E06ABF1CBE6DE01B
:100680006BBF3ABF1CBE3EE03BBF2ABF1CBE2FE083
:100690002BBF9ABF1CBE90E19BBF8ABF1CBE81E1ED
:1006A0008BBF5ABF1CBE82E18BBF4ABF81E090E086
:1006B00008950895DC01ED91FC91008CF18DE02D01
:1006C00009941CBE8BE08BBF7ABF1CBE8CE08BBF35
:1006D0006ABF1CBE1BBE83E08ABF81E00895FC0197
:1006E0008489958908952EE331E0FC0131832083CC
:1006F000FB014089518962897389FC0142835383DC
:10070000648375830895DC01ED91FC91028CF38D77
:10071000E02D099490E080E00895FB010190002015
:10072000E9F73197AF01461B570BDC01ED91FC91C6
:100730000280F381E02D09948F929F92AF92BF9235
:10074000EF92FF920F931F93CF93DF93CDB7DEB756
:10075000A1970FB6F894DEBF0FBECDBF7C01FA01A2
:10076000CB0119A2223008F42AE08E010F5D1F4F41
:10077000822E912CB12CA12CBF01A50194010E94C5
:100780005706F901CA016A300CF5605DD8016E9315
:100790008D01232B242B252B79F790E080E01097F7
:1007A00021F0BD01C7010E948D03A1960FB6F894F8
:1007B000DEBF0FBECDBFDF91CF911F910F91FF9094
:1007C000EF90BF90AF909F908F900895695CDECFBF
:1007D000CF93DF93C8E6D0E0FE016491662339F041
:1007E0008BE192E00E94DF012196892BA9F760E45A
:1007F00071E08BE192E00E948D03989590E080E09B
:10080000DF91CF9108958F929F92AF92BF92CF9236
:10081000DF92EF92FF920F931F93CF93DF937C01B0
:10082000EB016C0182E0C80ED11C4701E5E08E0EA1
:10083000911C10E000E0F60141916F0150E070E082
:1008400060E02AE0CE010E949C035C01E881F9810E
:100850000190F081E02D6EE2CE0109958A0D9B1D7D
:10086000080F191FC814D90431F7F701458150E06A
:1008700070E060E02AE0CE010E949C03800F911F8F
:10088000DF91CF911F910F91FF90EF90DF90CF906C
:10089000BF90AF909F908F9008951F920F920FB6C8
:1008A0000F9211242F933F938F939F93AF93BF93F6
:1008B0008091170290911802A0911902B0911A022A
:1008C0003091160223E0230F2D3758F50196A11D14
:1008D000B11D209316028093170290931802A093E3
:1008E0001902B0931A028091120290911302A09102
:1008F0001402B09115020196A11DB11D8093120240
:1009000090931302A0931402B0931502BF91AF917C
:100910009F918F913F912F910F900FBE0F901F903D
:10092000189526E8230F0296A11DB11DD2CF1F9264
:100930000F920FB60F9211242F933F934F935F9313
:100940006F937F938F939F93AF93BF93EF93FF9397
:100950008BE192E00E94BD01FF91EF91BF91AF91B9
:100960009F918F917F916F915F914F913F912F91C7
:100970000F900FBE0F901F9018951F920F920FB6F9
:100980000F9211242F938F939F93EF93FF93E091F6
:100990002B02F0912C028081E0913102F091320221
:1009A00082FD1BC09081809134028F5F8F732091F4
:1009B0003502821741F0E0913402F0E0E55EFD4F30
:1009C000958F80933402FF91EF919F918F912F919A
:1009D0000F900FBE0F901F9018958081F4CFEBE120
:1009E000F2E01382128248EE53E060E070E044834C
:1009F00055836683778384E091E09183808385ECDF
:100A000090E09587848784EC90E09787868780ECD8
:100A100090E0918B808B81EC90E0938B828B82ECC9
:100A200090E0958B848B86EC90E0978B868B118E73
:100A3000128E138E148EE8EBF2E08EE391E0918338
:100A400080831282138214821582E6ECF2E0918395
:100A500080831282138214821582EEEBF2E091837E
:100A600080831282138214821582E7EEF2E0918372
:100A700080831282138214821582ECECF2E01382DE
:100A80001282448355836683778326E131E0318384
:100A9000208397878687108A118A128A138A84E0B6
:100AA000808F0895CF93DF9300D000D000D01F92A5
:100AB000CDB7DEB7789484B5826084BD84B581609B
:100AC00084BD85B5826085BD85B5816085BD809119
:100AD0006E00816080936E00109281008091810091
:100AE0008260809381008091810081608093810089
:100AF000809180008160809380008091B10084604B
:100B00008093B1008091B00081608093B0008091AB
:100B10007A00846080937A0080917A00826080936A
:100B20007A0080917A00816080937A0080917A00C7
:100B3000806880937A001092C100E0912B02F091BE
:100B40002C0212E01083E0912B02F0912C02108213
:100B5000E0912702F091280282E48083E09129024B
:100B6000F0912A028FE3808310923302E0912F02EA
:100B7000F091300286E08083E0912D02F0912E0208
:100B8000808180618083E0912D02F0912E0280812E
:100B900088608083E0912D02F0912E028081806830
:100BA0008083E0912D02F0912E0280818F7D8083E1
:100BB00061E082E00E94030188E08093C00280939C
:100BC000C1028093C2028093C30268E971E18CEC98
:100BD00092E00E94610363E471E08BE192E00E9485
:100BE0008D038BE58F838EE391E09A8389838AE07E
:100BF0008B831C821D838FE08E8345E951E1BE010A
:100C00006F5F7F4F8CEC92E00E943503BE01695FFD
:100C10007F4FFB0101900020E9F73197AF01461BA0
:100C2000570B8CEC92E00E94EB028CEC92E00E945D
:100C30002A0300E010E08CEC92E00E94B10218164A
:100C400019065CF548E750E06AE971E08CEC92E047
:100C50000E945B0280919A01982F929596959695A5
:100C600093709330D1F483FF0AC081E090E00E943A
:100C7000FF0069E671E08BE192E00E948D038091B4
:100C80009A0184FF0AC090E080E00E94FF0061E8C2
:100C900071E08BE192E00E948D030115110559F27C
:100CA0000E94A901882339F20E940000C4CFA1E26A
:100CB0001A2EAA1BBB1BFD010DC0AA1FBB1FEE1FD6
:100CC000FF1FA217B307E407F50720F0A21BB30B21
:100CD000E40BF50B661F771F881F991F1A9469F79D
:100CE00060957095809590959B01AC01BD01CF01F9
:100CF0000895EE0FFF1F0590F491E02D0994F894EC
:020D0000FFCF23
:100D020000000000DF013F016C012C029D017B010C
:100D12008F01000000001403EB028A034E025A0303
:100D220094025802610359033503E8032A03B1020E
:100D32005B02830373036F034C0200000000030491
:100D42000D0A0041697220436F6E646974696F6EA7
:100D5200657220697320757020616E642072756EF1
:100D62006E696E672E2E2E0A0041697220636F6EC5
:100D7200646974696F6E6572206973206F6E210AEF
:100D82000041697220636F6E646974696F6E657287
:0A0D9200206973206F6666210A00D5
:00000001FF
